{
  "contractName": "DOSOnChainSDK",
  "abi": [
    {
      "constant": false,
      "inputs": [
        {
          "name": "queryId",
          "type": "uint256"
        },
        {
          "name": "result",
          "type": "bytes"
        }
      ],
      "name": "__callback__",
      "outputs": [],
      "payable": false,
      "stateMutability": "nonpayable",
      "type": "function"
    }
  ],
  "bytecode": "0x608060405260018054600160a060020a03191673e987926a226932dfb1f71fa316461db272e0531717905534801561003657600080fd5b5060d0806100456000396000f300608060405260043610603e5763ffffffff7c01000000000000000000000000000000000000000000000000000000006000350416636d11297781146043575b600080fd5b348015604e57600080fd5b5060408051602060046024803582810135601f8101859004850286018501909652858552609e95833595369560449491939091019190819084018382808284375094975060a09650505050505050565b005b50505600a165627a7a723058208d9f46531c380ef099e30a9923de48e3ebe603513004aff9fd736940421d8d910029",
  "source": "pragma solidity >= 0.4.24 < 0.5.0;\n\ncontract DOSProxyInterface {\n    function query(address, uint, string memory, string memory) public returns (uint);\n    function requestRandom(address, uint8, uint) public returns (uint);\n}\n\ncontract DOSAddressBridgeInterface {\n    function getProxyAddress() public view returns (address);\n}\n\ncontract DOSOnChainSDK {\n    DOSProxyInterface dosProxy;\n    DOSAddressBridgeInterface dosAddrBridge =\n        DOSAddressBridgeInterface(0xe987926A226932DFB1f71FA316461db272E05317);\n\n    modifier resolveAddress {\n        dosProxy = DOSProxyInterface(dosAddrBridge.getProxyAddress());\n        _;\n    }\n\n    function fromDOSProxyContract() internal view returns (address) {\n        return dosAddrBridge.getProxyAddress();\n    }\n\n    // @dev: Call this function to get a unique queryId to differentiate\n    //       parallel requests. A return value of 0x0 stands for error and a\n    //       related event would be emitted.\n    // @timeout: Estimated timeout in seconds specified by caller; e.g. 15.\n    //           Response is not guaranteed if processing time exceeds this.\n    // @dataSource: Data source destination specified by caller.\n    //              E.g.: 'https://api.coinbase.com/v2/prices/ETH-USD/spot'\n    // @selector: A selector expression provided by caller to filter out\n    //            specific data fields out of the raw response. The response\n    //            data format (json, xml/html, and more) is identified from\n    //            the selector expression.\n    //            E.g. Use \"$.data.amount\" to extract \"194.22\" out.\n    //             {\n    //                  \"data\":{\n    //                          \"base\":\"ETH\",\n    //                          \"currency\":\"USD\",\n    //                          \"amount\":\"194.22\"\n    //                  }\n    //             }\n    //            Check below documentation for details.\n    //            (https://dosnetwork.github.io/docs/#/contents/blockchains/ethereum?id=selector).\n    function DOSQuery(uint timeout, string memory dataSource, string memory selector)\n    resolveAddress\n    internal\n    returns (uint)\n    {\n        return dosProxy.query(address(this), timeout, dataSource, selector);\n    }\n\n    // @dev: Must override __callback__ to process a corresponding response. A\n    //       user-defined event could be added to notify the Dapp frontend that\n    //       the response is ready.\n    // @queryId: A unique queryId returned by DOSQuery() for callers to\n    //           differentiate parallel responses.\n    // @result: Response for the specified queryId.\n    function __callback__(uint queryId, bytes memory result) public {\n        // To be overridden in the caller contract.\n    }\n}\n",
  "sourcePath": "/home/hsy/OptionMarket/contracts/DOSOnChainSDK.sol",
  "compiler": {
    "name": "solc",
    "version": "0.4.24+commit.e67f0147.Emscripten.clang"
  },
  "schemaVersion": "2.0.1",
  "updatedAt": "2018-12-21T08:53:12.387Z"
}