{
  "contractName": "OptionMarket",
  "abi": [
    {
      "constant": true,
      "inputs": [],
      "name": "orderId",
      "outputs": [
        {
          "name": "",
          "type": "uint256"
        }
      ],
      "payable": false,
      "stateMutability": "view",
      "type": "function"
    },
    {
      "constant": true,
      "inputs": [
        {
          "name": "",
          "type": "uint256"
        }
      ],
      "name": "openOrders",
      "outputs": [
        {
          "name": "",
          "type": "uint256"
        }
      ],
      "payable": false,
      "stateMutability": "view",
      "type": "function"
    },
    {
      "constant": true,
      "inputs": [
        {
          "name": "",
          "type": "address"
        },
        {
          "name": "",
          "type": "uint256"
        }
      ],
      "name": "filledOrderByOwner",
      "outputs": [
        {
          "name": "",
          "type": "uint256"
        }
      ],
      "payable": false,
      "stateMutability": "view",
      "type": "function"
    },
    {
      "constant": true,
      "inputs": [
        {
          "name": "",
          "type": "uint256"
        }
      ],
      "name": "orders",
      "outputs": [
        {
          "name": "id",
          "type": "uint256"
        },
        {
          "name": "collateral",
          "type": "uint256"
        },
        {
          "name": "expiration",
          "type": "uint256"
        },
        {
          "name": "strikePrice",
          "type": "uint256"
        },
        {
          "name": "exercisePrice",
          "type": "uint256"
        },
        {
          "name": "maker",
          "type": "address"
        },
        {
          "name": "taker",
          "type": "address"
        },
        {
          "name": "maker_position",
          "type": "bool"
        },
        {
          "name": "taker_position",
          "type": "bool"
        },
        {
          "name": "leverage",
          "type": "uint8"
        },
        {
          "name": "symbol",
          "type": "string"
        },
        {
          "name": "status",
          "type": "uint8"
        },
        {
          "name": "assetType",
          "type": "uint8"
        }
      ],
      "payable": false,
      "stateMutability": "view",
      "type": "function"
    },
    {
      "constant": false,
      "inputs": [
        {
          "name": "symbol",
          "type": "string"
        },
        {
          "name": "strikePrice",
          "type": "uint256"
        },
        {
          "name": "leverage",
          "type": "uint8"
        },
        {
          "name": "expiration",
          "type": "uint256"
        },
        {
          "name": "position",
          "type": "bool"
        },
        {
          "name": "asset",
          "type": "uint8"
        }
      ],
      "name": "open",
      "outputs": [
        {
          "name": "",
          "type": "uint256"
        }
      ],
      "payable": true,
      "stateMutability": "payable",
      "type": "function"
    },
    {
      "constant": false,
      "inputs": [
        {
          "name": "id",
          "type": "uint256"
        }
      ],
      "name": "cancelOrder",
      "outputs": [],
      "payable": false,
      "stateMutability": "nonpayable",
      "type": "function"
    },
    {
      "constant": false,
      "inputs": [
        {
          "name": "id",
          "type": "uint256"
        }
      ],
      "name": "partialFill",
      "outputs": [],
      "payable": true,
      "stateMutability": "payable",
      "type": "function"
    },
    {
      "constant": false,
      "inputs": [
        {
          "name": "id",
          "type": "uint256"
        }
      ],
      "name": "fill",
      "outputs": [],
      "payable": true,
      "stateMutability": "payable",
      "type": "function"
    },
    {
      "constant": false,
      "inputs": [
        {
          "name": "id",
          "type": "uint256"
        }
      ],
      "name": "exercise",
      "outputs": [],
      "payable": false,
      "stateMutability": "nonpayable",
      "type": "function"
    },
    {
      "constant": false,
      "inputs": [
        {
          "name": "queryId",
          "type": "uint256"
        },
        {
          "name": "result",
          "type": "bytes"
        }
      ],
      "name": "__callback__",
      "outputs": [],
      "payable": false,
      "stateMutability": "nonpayable",
      "type": "function"
    }
  ],
  "bytecode": "0x608060405260018054600160a060020a03191673e987926a226932dfb1f71fa316461db272e05317179055600060025534801561003b57600080fd5b506121968061004b6000396000f3006080604052600436106100a35763ffffffff7c0100000000000000000000000000000000000000000000000000000000600035041663163de5e581146100a85780633278b69d146100cf5780633fda53891461013a578063447c1e8c14610147578063514fcac71461015f5780636d1129771461017757806396c2801d146101d5578063a85c38ef146101f9578063b07f0a4114610313578063f921cef61461032b575b600080fd5b3480156100b457600080fd5b506100bd610336565b60408051918252519081900360200190f35b6040805160206004803580820135601f81018490048402850184019095528484526100bd94369492936024939284019190819084018382808284375094975050843595505060ff6020850135811694604081013594506060810135151593506080013516905061033c565b6101456004356105b0565b005b34801561015357600080fd5b506100bd6004356106c3565b34801561016b57600080fd5b506101456004356106e2565b34801561018357600080fd5b5060408051602060046024803582810135601f81018590048502860185019096528585526101459583359536956044949193909101919081908401838280828437509497506109b79650505050505050565b3480156101e157600080fd5b506100bd600160a060020a0360043516602435610c5c565b34801561020557600080fd5b50610211600435610c8c565b604080518e8152602081018e90529081018c9052606081018b9052608081018a9052600160a060020a03808a1660a0830152881660c082015286151560e082015285151561010082015260ff85166101208201526101408101610160820184600281111561027b57fe5b60ff16815260200183600181111561028f57fe5b60ff168152602001828103825285818151815260200191508051906020019080838360005b838110156102cc5781810151838201526020016102b4565b50505050905090810190601f1680156102f95780820380516001836020036101000a031916815260200191505b509e50505050505050505050505050505060405180910390f35b34801561031f57600080fd5b50610145600435610d9c565b610145600435610ef8565b60025481565b600060018560ff16101580156103565750600a8560ff1611155b151561036157600080fd5b662386f26fc1000034101561037557600080fd5b6002805460010190819055604080516101a0810182529182523460208301528101859052606081018790526000608082018190523360a083015260c082018190528415801560e084015261010083015260ff8716610120830152610140820189905261016082019081526020018360018111156103ee57fe5b9052600280546000908152600360208181526040928390208551815585820151600182015592850151938301939093556060840151908201556080830151600482015560a0830151600582018054600160a060020a0392831673ffffffffffffffffffffffffffffffffffffffff199182161790915560c085015160068401805460e08801516101008901516101208a015160ff1660b060020a0276ff000000000000000000000000000000000000000000001991151560a860020a0275ff0000000000000000000000000000000000000000001993151560a060020a0274ff00000000000000000000000000000000000000001997909916949097169390931794909416959095179490941692909217169190911790556101408301518051919261052292600785019290910190612001565b5061016082015160088201805460ff1916600183600281111561054157fe5b021790555061018082015160088201805461ff00191661010083600181111561056657fe5b021790555050600254600480546001810182556000919091527f8a35acfbc15ff81a39ae7d344fd709f28e8600b4aa8c65c6b64bfe7fe36bd19b0181905598975050505050505050565b6000818152600360205260409020548190158015906105dc575060008181526003602052604090205481145b15156105e757600080fd5b60008281526003602052604081206008015460ff16600281111561060757fe5b1461061157600080fd5b600082815260036020526040902060010154341461062e57600080fd5b61063782611338565b506000818152600360208181526040808420600580820154600160a060020a031686528352818520805460018082018355918752848720018790553380875292862080548083018255908752848720018790559590945291905260068201805473ffffffffffffffffffffffffffffffffffffffff19169091179055600801805460ff19169091179055565b60048054829081106106d157fe5b600091825260209091200154905081565b6106ea61207f565b600082815260036020526040902054829015801590610716575060008181526003602052604090205481145b151561072157600080fd5b60008381526003602081815260409283902083516101a081018552815481526001808301548285015260028084015483880152948301546060830152600483015460808301526005830154600160a060020a0390811660a0840152600684015490811660c084015260a060020a810460ff908116151560e085015260a860020a8204811615156101008086019190915260b060020a909204166101208401526007840180548851938116159092026000190190911695909504601f8101859004850282018501909652858152909491936101408601939192909183018282801561084c5780601f106108215761010080835404028352916020019161084c565b820191906000526020600020905b81548152906001019060200180831161082f57829003601f168201915b5050509183525050600882015460209091019060ff16600281111561086d57fe5b600281111561087857fe5b81526020016008820160019054906101000a900460ff16600181111561089a57fe5b60018111156108a557fe5b90525060c0810151909250600160a060020a03161580156108d2575060a0820151600160a060020a031633145b15156108dd57600080fd5b6000838152600360208190526040822082815560018101839055600281018390559081018290556004810182905560058101805473ffffffffffffffffffffffffffffffffffffffff1916905560068101805476ffffffffffffffffffffffffffffffffffffffffffffff191690559061095a60078301826120e9565b50600801805461ffff1916905561097083611338565b8160a00151600160a060020a03166108fc83602001519081150290604051600060405180830381858888f193505050501580156109b1573d6000803e3d6000fd5b50505050565b606060008060008060008060006109cc6113e2565b600160a060020a031633146109e057600080fd5b60008a81526006602052604090205415156109fa57600080fd5b889750610a0688611473565b60408051808201909152600181527f2e00000000000000000000000000000000000000000000000000000000000000602082015290975060009650610a5290899063ffffffff61151516565b94506000198514610a7b57610a78610a73896001880163ffffffff61152c16565b611473565b95505b60008a8152600660209081526040808320548352600391829052822060648a028901600482018190556001820154928201549197506002909202955091935010801590610aed5750600384015460068501546004860154610aea91908390039060b060020a900460ff16611543565b10155b15610afa57829150610bb6565b8360040154846003015410158015610b365750600384015460068501546004860154610b33919083039060b060020a900460ff16611543565b10155b15610b445760009150610bb6565b600384015460018501546006860154610bb39291610ba791610b7d9060001960ff60b060020a909204821601168463ffffffff61154316565b600689015460048a0154610b9a9160b060020a900460ff16611543565b039063ffffffff61154316565b9063ffffffff61157816565b91505b610bc6838363ffffffff61159b16565b60088501805460ff191660021790556005850154604051919250600160a060020a0316906108fc8415029084906000818181858888f19350505050158015610c12573d6000803e3d6000fd5b506006840154604051600160a060020a039091169082156108fc029083906000818181858888f19350505050158015610c4f573d6000803e3d6000fd5b5050505050505050505050565b600560205281600052604060002081815481101515610c7757fe5b90600052602060002001600091509150505481565b6003602081815260009283526040928390208054600180830154600280850154968501546004860154600587015460068801546007890180548d51601f6000199a831615610100029a909a01909116969096049788018b90048b0286018b01909c52868552969a94999892979196600160a060020a03918216969181169560ff60a060020a830481169660a860020a840482169660b060020a90940490911694939092830182828015610d805780601f10610d5557610100808354040283529160200191610d80565b820191906000526020600020905b815481529060010190602001808311610d6357829003601f168201915b5050506008909301549192505060ff808216916101009004168d565b6000818152600360205260408120546060918291849015801590610dcd575060008181526003602052604090205481145b1515610dd857600080fd5b600160008681526003602052604090206008015460ff166002811115610dfa57fe5b14610e0457600080fd5b6000858152600360205260409020600201544210610e2157600080fd5b60008581526003602090815260409182902060088101546007909101805484516002610100600184161581026000190190931604601f8101869004860282018601909652858152610ecf959190930460ff1693830182828015610ec55780601f10610e9a57610100808354040283529160200191610ec5565b820191906000526020600020905b815481529060010190602001808311610ea857829003601f168201915b50505050506115b2565b9094509250610ee0601e858561176f565b60009081526006602052604090209490945550505050565b610f0061207f565b600082815260036020526040902054829015801590610f2c575060008181526003602052604090205481145b1515610f3757600080fd5b60008381526003602052604081206008015460ff166002811115610f5757fe5b14610f6157600080fd5b662386f26fc100003410158015610fa15750600083815260036020526040902060010154662386f26fc1000090610f9e903463ffffffff61159b16565b10155b1515610fac57600080fd5b600083815260036020818152604092839020600180820180543490039081905585516101a081018752835481528085019190915260028084015482880152948301546060820152600483015460808201526005830154600160a060020a0390811660a0830152600684015490811660c083015260a060020a810460ff908116151560e084015260a860020a8204811615156101008085019190915260b060020a909204166101208301526007840180548851948116159092026000190190911695909504601f8101859004850283018501909652858252949193610140860193919290918301828280156110e15780601f106110b6576101008083540402835291602001916110e1565b820191906000526020600020905b8154815290600101906020018083116110c457829003601f168201915b5050509183525050600882015460209091019060ff16600281111561110257fe5b600281111561110d57fe5b81526020016008820160019054906101000a900460ff16600181111561112f57fe5b600181111561113a57fe5b905250600280546001908101918290559082523460208301523360c0830152909250610160830181905250600280546000908152600360208181526040928390208651815581870151600182015592860151938301939093556060850151908201556080840151600482015560a0840151600582018054600160a060020a0392831673ffffffffffffffffffffffffffffffffffffffff199182161790915560c086015160068401805460e08901516101008a01516101208b015160ff1660b060020a0276ff000000000000000000000000000000000000000000001991151560a860020a0275ff0000000000000000000000000000000000000000001993151560a060020a0274ff000000000000000000000000000000000000000019979099169490971693909317949094169590951794909416929092171691909117905561014084015180518593611296926007850192910190612001565b5061016082015160088201805460ff191660018360028111156112b557fe5b021790555061018082015160088201805461ff0019166101008360018111156112da57fe5b021790555050505060c0810151600160a060020a03908116600090815260056020908152604080832060028054825460018082018555938752858720015560a090960151909416835282209354845493840185559382529020015550565b60045460005b818110156113dd578260048281548110151561135657fe5b906000526020600020015414156113d55760048054600019840190811061137957fe5b906000526020600020015460048281548110151561139357fe5b6000918252602090912001556004805460001984019081106113b157fe5b600091825260208220015560048054906113cf906000198301612130565b506113dd565b60010161133e565b505050565b600154604080517f43a73d9a0000000000000000000000000000000000000000000000000000000081529051600092600160a060020a0316916343a73d9a91600480830192602092919082900301818787803b15801561144157600080fd5b505af1158015611455573d6000803e3d6000fd5b505050506040513d602081101561146b57600080fd5b505190505b90565b6000818180805b8351821015611508576114ac848381518110151561149457fe5b90602001015160f860020a900460f860020a02611992565b9050600a60ff8216106114c15782945061150c565b7f199999999999999999999999999999999999999999999999999999999999999983106114f257600019945061150c565b8060ff1683600a0201925060019091019061147a565b8294505b50505050919050565b600082826115238282611a47565b95945050505050565b6060826115398184611d14565b91505b5092915050565b600080831515611556576000915061153c565b5082820282848281151561156657fe5b041461157157600080fd5b9392505050565b60008080831161158757600080fd5b828481151561159257fe5b04949350505050565b600080838311156115ab57600080fd5b5050900390565b60608060008460018111156115c357fe5b141561166e5761162f606060405190810160405280603c81526020017f68747470733a2f2f6d696e2d6170692e63727970746f636f6d706172652e636f81526020017f6d2f646174612f70726963653f7473796d733d555344266673796d3d0000000081525084611d94565b6040805190810160405280600581526020017f242e55534400000000000000000000000000000000000000000000000000000081525091509150611768565b600184600181111561167c57fe5b14156117685761172d6040805190810160405280600681526020017f2f70726963650000000000000000000000000000000000000000000000000000815250611721606060405190810160405280602581526020017f68747470733a2f2f6170692e69657874726164696e672e636f6d2f312e302f7381526020017f746f636b2f00000000000000000000000000000000000000000000000000000081525086611d94565b9063ffffffff611d9416565b6040805190810160405280600181526020017f2400000000000000000000000000000000000000000000000000000000000000815250915091505b9250929050565b600154604080517f43a73d9a0000000000000000000000000000000000000000000000000000000081529051600092600160a060020a0316916343a73d9a91600480830192602092919082900301818787803b1580156117ce57600080fd5b505af11580156117e2573d6000803e3d6000fd5b505050506040513d60208110156117f857600080fd5b50516000805473ffffffffffffffffffffffffffffffffffffffff1916600160a060020a03928316178082556040517fb7fb8fd70000000000000000000000000000000000000000000000000000000081523060048201818152602483018a9052608060448401908152895160848501528951949096169563b7fb8fd79592948b948b948b949392606483019260a401916020880191908190849084905b838110156118ae578181015183820152602001611896565b50505050905090810190601f1680156118db5780820380516001836020036101000a031916815260200191505b50838103825284518152845160209182019186019080838360005b8381101561190e5781810151838201526020016118f6565b50505050905090810190601f16801561193b5780820380516001836020036101000a031916815260200191505b509650505050505050602060405180830381600087803b15801561195e57600080fd5b505af1158015611972573d6000803e3d6000fd5b505050506040513d602081101561198857600080fd5b5051949350505050565b60007f30000000000000000000000000000000000000000000000000000000000000007fff00000000000000000000000000000000000000000000000000000000000000831610801590611a2857507f39000000000000000000000000000000000000000000000000000000000000007fff00000000000000000000000000000000000000000000000000000000000000831611155b15611a3e5750602f1960f860020a820401611a42565b50600a5b919050565b600060606000806000855160001415611a635760009450611d0a565b855187511015611a77576000199450611d0a565b8551600101604051908082528060200260200182016040528015611aa5578160200160208202803883390190505b5093506000846001815181101515611ab957fe5b6020908102909101015260009250600291505b85518211611bea575b600083118015611b3c57508560018303815181101515611af157fe5b90602001015160f860020a900460f860020a02600160f860020a0319168684815181101515611b1c57fe5b90602001015160f860020a900460f860020a02600160f860020a03191614155b15611b60578383815181101515611b4f57fe5b906020019060200201519250611ad5565b8560018303815181101515611b7157fe5b90602001015160f860020a900460f860020a02600160f860020a0319168684815181101515611b9c57fe5b90602001015160f860020a900460f860020a02600160f860020a0319161415611bc6576001909201915b828483815181101515611bd557fe5b60209081029091010152600190910190611acc565b5060009050805b8651811015611d04575b600082118015611c5f57508681815181101515611c1457fe5b90602001015160f860020a900460f860020a02600160f860020a0319168683815181101515611c3f57fe5b90602001015160f860020a900460f860020a02600160f860020a03191614155b15611c83578382815181101515611c7257fe5b906020019060200201519150611bfb565b8681815181101515611c9157fe5b90602001015160f860020a900460f860020a02600160f860020a0319168683815181101515611cbc57fe5b90602001015160f860020a900460f860020a02600160f860020a0319161415611ce6576001909101905b8551821415611cfc578181036001019450611d0a565b600101611bf1565b60001994505b5050505092915050565b81516060908210611d8657604080517f08c379a000000000000000000000000000000000000000000000000000000000815260206004820181905260248201527f496e76616c696420737461727420696e646578206f7574206f662072616e6765604482015290519081900360640190fd5b611571838384865103611da2565b606082826115238282611ef2565b6060806000855185108015611db8575084848601115b8015611dc75750855184860111155b1515611e5a57604080517f08c379a000000000000000000000000000000000000000000000000000000000815260206004820152602a60248201527f496e76616c696420737461727420696e646578206f72206c656e677468206f7560448201527f74206f662072616e676500000000000000000000000000000000000000000000606482015290519081900360840190fd5b836040519080825280601f01601f191660200182016040528015611e88578160200160208202803883390190505b509150600090505b83811015611ee95785818601815181101515611ea857fe5b90602001015160f860020a900460f860020a028282815181101515611ec957fe5b906020010190600160f860020a031916908160001a905350600101611e90565b50949350505050565b60608060008084518651016040519080825280601f01601f191660200182016040528015611f2a578160200160208202803883390190505b50925060009150600090505b8551821015611f94578551600183019287918110611f5057fe5b90602001015160f860020a900460f860020a028382806001019350815181101515611f7757fe5b906020010190600160f860020a031916908160001a905350611f36565b600091505b8451821015611ff7578451600183019286918110611fb357fe5b90602001015160f860020a900460f860020a028382806001019350815181101515611fda57fe5b906020010190600160f860020a031916908160001a905350611f99565b5090949350505050565b828054600181600116156101000203166002900490600052602060002090601f016020900481019282601f1061204257805160ff191683800117855561206f565b8280016001018555821561206f579182015b8281111561206f578251825591602001919060010190612054565b5061207b929150612150565b5090565b604080516101a08101825260008082526020820181905291810182905260608082018390526080820183905260a0820183905260c0820183905260e08201839052610100820183905261012082018390526101408201529061016082019081526020016000905290565b50805460018160011615610100020316600290046000825580601f1061210f575061212d565b601f01602090049060005260206000209081019061212d9190612150565b50565b8154818355818111156113dd576000838152602090206113dd9181019083015b61147091905b8082111561207b57600081556001016121565600a165627a7a7230582004fac35a59ac86f427e303767270479e56abf0b6facec99c2582409ceaefaedf0029",
  "source": "pragma solidity >= 0.4.24 < 0.5.0;\n\nimport \"./SafeMath.sol\";\nimport \"./DOSOnChainSDK.sol\";\nimport \"./utils.sol\";\n\ncontract OptionMarket is DOSOnChainSDK {\n    using SafeMath for *;\n    using utils for string;\n\n    enum Type { Crypto, Stock }\n    enum State { Open, Filled, Exercised }\n\n    uint constant MIN_COLLATERAL = 10 finney; // 0.01 ether\n    // uint constant MIN_COLLATERAL = 1 TRX;\n\n    // orderId monotonously increase from 1.\n    uint public orderId = 0;\n\n    struct Order {\n        uint id;\n        uint collateral;      // Collateral in amount of Wei (Sun in Tron). Both option maker and taker need to provide same amount of collateral.\n        uint expiration;      // An option's expiration time, before which an option order could be taken and exercised.\n        uint strikePrice;     // Strike price specified by option maker (precise to 2 decimals)\n        uint exercisePrice;   // Exercise price fetched by oracle (precise to 2 decimals)\n        address maker;        // Option maker\n        address taker;        // Option taker\n        bool maker_position;  // 0: short; 1: long\n        bool taker_position;  // !maker_position\n        uint8 leverage;       // 1x, 2x, ... , 10x\n        string symbol;        // Crypto symbol like ETH, BTC, TRX, etc.; or stock symbol like AMZN, BABA, etc. Usually filled by frontend.\n        State status;\n        Type assetType;\n    }\n\n    // Global on-chain orderbooks, including all open and exercised orders.\n    mapping(uint => Order) public orders;\n    // Global list of open orders' order id. Build open order dasboard on frontend.\n    uint[] public openOrders;\n    // Per user's filled orders. Build user order dashboard on frontend.\n    mapping(address => uint[]) public filledOrderByOwner;\n    mapping(uint => uint) queryToOrderId;\n\n    modifier validId(uint id) {\n        require(orders[id].id != 0 && orders[id].id == id);\n        _;\n    }\n\n    function open(string symbol, uint strikePrice, uint8 leverage, uint expiration, bool position, Type asset) public payable returns (uint) {\n        require(leverage >= 1 && leverage <= 10);\n        require(msg.value >= MIN_COLLATERAL);\n\n        ++orderId;\n        orders[orderId] = Order(orderId, msg.value, expiration, strikePrice, 0, msg.sender, 0x0, position, !position, leverage, symbol, State.Open, asset);\n        openOrders.push(orderId);\n        return orderId;\n    }\n\n    // Maker can cancel an order if it's not (fully) taken.\n    function cancelOrder(uint id) public validId(id) {\n        Order memory order = orders[id];\n        require(order.taker == 0x0 && order.maker == msg.sender);\n\n        delete orders[id];\n        removeOpenOrder(id);\n        order.maker.transfer(order.collateral);\n    }\n\n    function partialFill(uint id) public payable validId(id) {\n        require(orders[id].status == State.Open);\n        require(msg.value >= MIN_COLLATERAL && orders[id].collateral.sub(msg.value) >= MIN_COLLATERAL);\n\n        // Adjust partially filled order\n        orders[id].collateral -= msg.value;\n\n        // Create a new filled order.\n        Order memory newOrder = orders[id];\n        newOrder.id = ++orderId;\n        newOrder.collateral = msg.value;\n        newOrder.taker = msg.sender;\n        newOrder.status = State.Filled;\n        orders[orderId] = newOrder;\n        filledOrderByOwner[newOrder.taker].push(orderId);\n        filledOrderByOwner[newOrder.maker].push(orderId);\n    }\n\n    function fill(uint id) public payable validId(id) {\n        require(orders[id].status == State.Open);\n        // Taker must provide same amount of collateral as deposited by the option maker.\n        require(msg.value == orders[id].collateral);\n\n        removeOpenOrder(id);\n        filledOrderByOwner[orders[id].maker].push(id);\n        filledOrderByOwner[msg.sender].push(id);\n        orders[id].taker = msg.sender;\n        orders[id].status = State.Filled;\n    }\n\n    // Taker could take profit/loss by exercising a filled order at any time before expiration.\n    // However the maximum profit/loss is the amount of collateral.\n    // Contracts queries oracle to get final exercise price.\n    function exercise(uint id) public validId(id) {\n        require(orders[id].status == State.Filled);\n        require(block.timestamp < orders[id].expiration);\n\n        string memory dataSource;\n        string memory selector;\n        (dataSource, selector) = buildOracleRequest(orders[id].assetType, orders[id].symbol);\n        uint queryId = DOSQuery(30, dataSource, selector);\n        queryToOrderId[queryId] = id;\n    }\n\n    function __callback__(uint queryId, bytes memory result) public {\n        require(msg.sender == fromDOSProxyContract());\n        require(queryToOrderId[queryId] != 0);\n\n        string memory price_str = string(result);\n        uint price = price_str.str2Uint();\n        uint fractional = 0;\n        int delimit_idx = price_str.indexOf('.');\n        if (delimit_idx != -1) {\n            fractional = price_str.subStr(uint(delimit_idx + 1)).str2Uint();\n        }\n\n        Order storage order = orders[queryToOrderId[queryId]];\n        order.exercisePrice = price * 100 + fractional;\n\n        uint total = 2 * order.collateral;\n        uint payToMaker = 0;\n        // payToMaker = collateral * (1 + leverage * (exercisePrice - strikePrice) / strikePrice);\n        if (order.exercisePrice >= order.strikePrice && (order.exercisePrice - order.strikePrice).mul(order.leverage) >= order.strikePrice) {\n            payToMaker = total;\n        } else if (order.strikePrice >= order.exercisePrice && (order.strikePrice - order.exercisePrice).mul(order.leverage) >= order.strikePrice) {\n            payToMaker = 0;\n        } else {\n            payToMaker = (order.exercisePrice.mul(order.leverage) - (order.leverage - 1).mul(order.strikePrice)).mul(order.collateral).div(order.strikePrice);\n        }\n        uint payToTaker = total.sub(payToMaker);\n        order.status = State.Exercised;\n\n        order.maker.transfer(payToMaker);\n        order.taker.transfer(payToTaker);\n    }\n\n    // Build oracle request, returns (data source, selector) string.\n    function buildOracleRequest(Type asset, string symbol) private pure returns (string, string) {\n        if (asset == Type.Crypto) {\n            return (utils.strConcat(\"https://min-api.cryptocompare.com/data/price?tsyms=USD&fsym=\", symbol), \"$.USD\");\n        } else if (asset == Type.Stock) {\n            return (utils.strConcat(\"https://api.iextrading.com/1.0/stock/\", symbol).strConcat(\"/price\"), \"$\");\n        }\n    }\n\n    function removeOpenOrder(uint id) private {\n        uint len =  openOrders.length;\n        for (uint i = 0; i < len; i++) {\n            if (openOrders[i] == id) {\n                openOrders[i] = openOrders[len - 1];\n                delete openOrders[len-1];\n                openOrders.length--;\n                return;\n            }\n        }\n    }\n}\n",
  "sourcePath": "/home/hsy/OptionMarket/contracts/OptionMarket.sol",
  "compiler": {
    "name": "solc",
    "version": "0.4.24+commit.e67f0147.Emscripten.clang"
  },
  "schemaVersion": "2.0.1",
  "updatedAt": "2018-12-21T08:53:12.388Z"
}